{
  "transactions": [
    {
      "hash": "0x6a53dff76528078505fea82e0038d37effbd450fc46d134064770b00dfafda6c",
      "transactionType": "CALL",
      "contractName": null,
      "contractAddress": "0x779877a7b0d9e8603169ddbd7836e478b4624789",
      "function": "transferAndCall(address,uint256,bytes)",
      "arguments": [
        "0x9DdfaCa8183c41ad55329BdeeD9F6A8d53168B1B",
        "3000000000000000000",
        "0x939b38a178d25b591aa3a69697ccdb4e772c1c4fcacad7b915f698fe62b001e6"
      ],
      "transaction": {
        "from": "0x9c12e301cf0f504864700d90dc3e4af5e84e75d1",
        "to": "0x779877a7b0d9e8603169ddbd7836e478b4624789",
        "gas": "0x1c1ff",
        "value": "0x0",
        "input": "0x4000aea00000000000000000000000009ddfaca8183c41ad55329bdeed9f6a8d53168b1b00000000000000000000000000000000000000000000000029a2241af62c000000000000000000000000000000000000000000000000000000000000000000600000000000000000000000000000000000000000000000000000000000000020939b38a178d25b591aa3a69697ccdb4e772c1c4fcacad7b915f698fe62b001e6",
        "nonce": "0x1",
        "chainId": "0xaa36a7"
      },
      "additionalContracts": [],
      "isFixedGasLimit": false
    }
  ],
  "receipts": [
    {
      "status": "0x1",
      "cumulativeGasUsed": "0x987d29",
      "logs": [
        {
          "address": "0x779877a7b0d9e8603169ddbd7836e478b4624789",
          "topics": [
            "0xddf252ad1be2c89b69c2b068fc378daa952ba7f163c4a11628f55a4df523b3ef",
            "0x0000000000000000000000009c12e301cf0f504864700d90dc3e4af5e84e75d1",
            "0x0000000000000000000000009ddfaca8183c41ad55329bdeed9f6a8d53168b1b"
          ],
          "data": "0x00000000000000000000000000000000000000000000000029a2241af62c0000",
          "blockHash": "0xa032bca4d8e6276f9267abea1fdf9fb19ed1f007288cbfc569e814ba95176dab",
          "blockNumber": "0x75072b",
          "transactionHash": "0x6a53dff76528078505fea82e0038d37effbd450fc46d134064770b00dfafda6c",
          "transactionIndex": "0x60",
          "logIndex": "0x99",
          "removed": false
        },
        {
          "address": "0x779877a7b0d9e8603169ddbd7836e478b4624789",
          "topics": [
            "0xe19260aff97b920c7df27010903aeb9c8d2be5d310a2c67824cf3f15396e4c16",
            "0x0000000000000000000000009c12e301cf0f504864700d90dc3e4af5e84e75d1",
            "0x0000000000000000000000009ddfaca8183c41ad55329bdeed9f6a8d53168b1b"
          ],
          "data": "0x00000000000000000000000000000000000000000000000029a2241af62c000000000000000000000000000000000000000000000000000000000000000000400000000000000000000000000000000000000000000000000000000000000020939b38a178d25b591aa3a69697ccdb4e772c1c4fcacad7b915f698fe62b001e6",
          "blockHash": "0xa032bca4d8e6276f9267abea1fdf9fb19ed1f007288cbfc569e814ba95176dab",
          "blockNumber": "0x75072b",
          "transactionHash": "0x6a53dff76528078505fea82e0038d37effbd450fc46d134064770b00dfafda6c",
          "transactionIndex": "0x60",
          "logIndex": "0x9a",
          "removed": false
        },
        {
          "address": "0x9ddfaca8183c41ad55329bdeed9f6a8d53168b1b",
          "topics": [
            "0x1ced9348ff549fceab2ac57cd3a9de38edaaab274b725ee82c23e8fc8c4eec7a",
            "0x939b38a178d25b591aa3a69697ccdb4e772c1c4fcacad7b915f698fe62b001e6"
          ],
          "data": "0x000000000000000000000000000000000000000000000000000000000000000000000000000000000000000000000000000000000000000029a2241af62c0000",
          "blockHash": "0xa032bca4d8e6276f9267abea1fdf9fb19ed1f007288cbfc569e814ba95176dab",
          "blockNumber": "0x75072b",
          "transactionHash": "0x6a53dff76528078505fea82e0038d37effbd450fc46d134064770b00dfafda6c",
          "transactionIndex": "0x60",
          "logIndex": "0x9b",
          "removed": false
        }
      ],
      "logsBloom": "0x00000004000000000000000200000000000000000020000000000000020000000000000000000000000000000000000000000000004000000000000000000000000000000000000004000008000000000000000000000000000020000020000008000000000000000000000000004000000000000000000000000010000040000000000000000000000000010000800000000020000000000000000000000000000000000000000000000000010000000000000000000002000004000000000000000002000000000800000000000000000000000000000100000000000000000010000000000000800000000000000000000000000000000000000000000000",
      "type": "0x2",
      "transactionHash": "0x6a53dff76528078505fea82e0038d37effbd450fc46d134064770b00dfafda6c",
      "transactionIndex": "0x60",
      "blockHash": "0xa032bca4d8e6276f9267abea1fdf9fb19ed1f007288cbfc569e814ba95176dab",
      "blockNumber": "0x75072b",
      "gasUsed": "0x133b1",
      "effectiveGasPrice": "0x3f327fd7",
      "from": "0x9c12e301cf0f504864700d90dc3e4af5e84e75d1",
      "to": "0x779877a7b0d9e8603169ddbd7836e478b4624789",
      "contractAddress": null
    }
  ],
  "libraries": [],
  "pending": [],
  "returns": {},
  "timestamp": 1739068656,
  "chain": 11155111,
  "commit": "278bcfa"
}